{
  "contractName": "ResourceTrading",
  "abi": [
    {
      "inputs": [],
      "stateMutability": "nonpayable",
      "type": "constructor"
    },
    {
      "anonymous": false,
      "inputs": [
        {
          "indexed": false,
          "internalType": "uint256",
          "name": "id",
          "type": "uint256"
        },
        {
          "indexed": false,
          "internalType": "string",
          "name": "title",
          "type": "string"
        },
        {
          "indexed": false,
          "internalType": "uint256",
          "name": "price",
          "type": "uint256"
        },
        {
          "indexed": false,
          "internalType": "uint256",
          "name": "quantity",
          "type": "uint256"
        },
        {
          "indexed": false,
          "internalType": "address",
          "name": "seller",
          "type": "address"
        }
      ],
      "name": "ResourceAdded",
      "type": "event"
    },
    {
      "anonymous": false,
      "inputs": [
        {
          "indexed": false,
          "internalType": "uint256",
          "name": "id",
          "type": "uint256"
        },
        {
          "indexed": false,
          "internalType": "uint256",
          "name": "quantity",
          "type": "uint256"
        },
        {
          "indexed": false,
          "internalType": "address",
          "name": "buyer",
          "type": "address"
        },
        {
          "indexed": false,
          "internalType": "uint256",
          "name": "totalPrice",
          "type": "uint256"
        }
      ],
      "name": "ResourcePurchased",
      "type": "event"
    },
    {
      "inputs": [],
      "name": "owner",
      "outputs": [
        {
          "internalType": "address",
          "name": "",
          "type": "address"
        }
      ],
      "stateMutability": "view",
      "type": "function",
      "constant": true
    },
    {
      "inputs": [],
      "name": "resourceCounter",
      "outputs": [
        {
          "internalType": "uint256",
          "name": "",
          "type": "uint256"
        }
      ],
      "stateMutability": "view",
      "type": "function",
      "constant": true
    },
    {
      "inputs": [
        {
          "internalType": "uint256",
          "name": "",
          "type": "uint256"
        }
      ],
      "name": "resources",
      "outputs": [
        {
          "internalType": "uint256",
          "name": "id",
          "type": "uint256"
        },
        {
          "internalType": "string",
          "name": "title",
          "type": "string"
        },
        {
          "internalType": "string",
          "name": "description",
          "type": "string"
        },
        {
          "internalType": "uint256",
          "name": "price",
          "type": "uint256"
        },
        {
          "internalType": "address",
          "name": "seller",
          "type": "address"
        },
        {
          "internalType": "uint256",
          "name": "quantity",
          "type": "uint256"
        }
      ],
      "stateMutability": "view",
      "type": "function",
      "constant": true
    },
    {
      "inputs": [
        {
          "internalType": "string",
          "name": "_title",
          "type": "string"
        },
        {
          "internalType": "string",
          "name": "_description",
          "type": "string"
        },
        {
          "internalType": "uint256",
          "name": "_price",
          "type": "uint256"
        },
        {
          "internalType": "uint256",
          "name": "_quantity",
          "type": "uint256"
        }
      ],
      "name": "addResource",
      "outputs": [],
      "stateMutability": "nonpayable",
      "type": "function"
    },
    {
      "inputs": [
        {
          "internalType": "uint256",
          "name": "_id",
          "type": "uint256"
        },
        {
          "internalType": "uint256",
          "name": "_quantity",
          "type": "uint256"
        }
      ],
      "name": "purchaseResource",
      "outputs": [],
      "stateMutability": "payable",
      "type": "function",
      "payable": true
    }
  ],
  "bytecode": "0x608060405234801561001057600080fd5b50336000806101000a81548173ffffffffffffffffffffffffffffffffffffffff021916908373ffffffffffffffffffffffffffffffffffffffff160217905550610f10806100606000396000f3fe60806040526004361061004a5760003560e01c80630789bf9a1461004f578063244d6daa1461007a57806347538fa8146100bc5780637529d7f4146100e55780638da5cb5b14610101575b600080fd5b34801561005b57600080fd5b5061006461012c565b6040516100719190610af8565b60405180910390f35b34801561008657600080fd5b506100a1600480360381019061009c919061081b565b610132565b6040516100b396959493929190610b13565b60405180910390f35b3480156100c857600080fd5b506100e360048036038101906100de9190610788565b61029e565b005b6100ff60048036038101906100fa9190610844565b61047f565b005b34801561010d57600080fd5b50610116610644565b6040516101239190610a3d565b60405180910390f35b60015481565b600260205280600052604060002060009150905080600001549080600101805461015b90610daa565b80601f016020809104026020016040519081016040528092919081815260200182805461018790610daa565b80156101d45780601f106101a9576101008083540402835291602001916101d4565b820191906000526020600020905b8154815290600101906020018083116101b757829003601f168201915b5050505050908060020180546101e990610daa565b80601f016020809104026020016040519081016040528092919081815260200182805461021590610daa565b80156102625780601f1061023757610100808354040283529160200191610262565b820191906000526020600020905b81548152906001019060200180831161024557829003601f168201915b5050505050908060030154908060040160009054906101000a900473ffffffffffffffffffffffffffffffffffffffff16908060050154905086565b600082116102e1576040517f08c379a00000000000000000000000000000000000000000000000000000000081526004016102d890610a58565b60405180910390fd5b60008111610324576040517f08c379a000000000000000000000000000000000000000000000000000000000815260040161031b90610ab8565b60405180910390fd5b6001600081548092919061033790610ddc565b91905055506040518060c0016040528060015481526020018581526020018481526020018381526020013373ffffffffffffffffffffffffffffffffffffffff168152602001828152506002600060015481526020019081526020016000206000820151816000015560208201518160010190805190602001906103bc929190610668565b5060408201518160020190805190602001906103d9929190610668565b506060820151816003015560808201518160040160006101000a81548173ffffffffffffffffffffffffffffffffffffffff021916908373ffffffffffffffffffffffffffffffffffffffff16021790555060a082015181600501559050507fa127e8c2c6cae851d64a0483b4eb116c5c854676a28c7b0667490908938b4bc860015485848433604051610471959493929190610b82565b60405180910390a150505050565b60006002600084815260200190815260200160002090506000816000015414156104de576040517f08c379a00000000000000000000000000000000000000000000000000000000081526004016104d590610a98565b60405180910390fd5b8181600501541015610525576040517f08c379a000000000000000000000000000000000000000000000000000000000815260040161051c90610ad8565b60405180910390fd5b60008282600301546105379190610c9e565b905080341461057b576040517f08c379a000000000000000000000000000000000000000000000000000000000815260040161057290610a78565b60405180910390fd5b8282600501600082825461058f9190610cf8565b925050819055508160040160009054906101000a900473ffffffffffffffffffffffffffffffffffffffff1673ffffffffffffffffffffffffffffffffffffffff166108fc829081150290604051600060405180830381858888f19350505050158015610600573d6000803e3d6000fd5b507f8f3969f7e8a003d02cf8e5c59c197a8f9a7378d2c500e7b8dc6a50b14c4414c1848433846040516106369493929190610bdc565b60405180910390a150505050565b60008054906101000a900473ffffffffffffffffffffffffffffffffffffffff1681565b82805461067490610daa565b90600052602060002090601f01602090048101928261069657600085556106dd565b82601f106106af57805160ff19168380011785556106dd565b828001600101855582156106dd579182015b828111156106dc5782518255916020019190600101906106c1565b5b5090506106ea91906106ee565b5090565b5b808211156107075760008160009055506001016106ef565b5090565b600061071e61071984610c52565b610c21565b90508281526020810184848401111561073657600080fd5b610741848285610d68565b509392505050565b600082601f83011261075a57600080fd5b813561076a84826020860161070b565b91505092915050565b60008135905061078281610ec3565b92915050565b6000806000806080858703121561079e57600080fd5b600085013567ffffffffffffffff8111156107b857600080fd5b6107c487828801610749565b945050602085013567ffffffffffffffff8111156107e157600080fd5b6107ed87828801610749565b93505060406107fe87828801610773565b925050606061080f87828801610773565b91505092959194509250565b60006020828403121561082d57600080fd5b600061083b84828501610773565b91505092915050565b6000806040838503121561085757600080fd5b600061086585828601610773565b925050602061087685828601610773565b9150509250929050565b61088981610d2c565b82525050565b600061089a82610c82565b6108a48185610c8d565b93506108b4818560208601610d77565b6108bd81610eb2565b840191505092915050565b60006108d5601f83610c8d565b91507f5072696365206d7573742062652067726561746572207468616e207a65726f006000830152602082019050919050565b6000610915601483610c8d565b91507f496e636f72726563742045746865722073656e740000000000000000000000006000830152602082019050919050565b6000610955601783610c8d565b91507f5265736f7572636520646f6573206e6f742065786973740000000000000000006000830152602082019050919050565b6000610995602283610c8d565b91507f5175616e74697479206d7573742062652067726561746572207468616e207a6560008301527f726f0000000000000000000000000000000000000000000000000000000000006020830152604082019050919050565b60006109fb601d83610c8d565b91507f4e6f7420656e6f756768207175616e7469747920617661696c61626c650000006000830152602082019050919050565b610a3781610d5e565b82525050565b6000602082019050610a526000830184610880565b92915050565b60006020820190508181036000830152610a71816108c8565b9050919050565b60006020820190508181036000830152610a9181610908565b9050919050565b60006020820190508181036000830152610ab181610948565b9050919050565b60006020820190508181036000830152610ad181610988565b9050919050565b60006020820190508181036000830152610af1816109ee565b9050919050565b6000602082019050610b0d6000830184610a2e565b92915050565b600060c082019050610b286000830189610a2e565b8181036020830152610b3a818861088f565b90508181036040830152610b4e818761088f565b9050610b5d6060830186610a2e565b610b6a6080830185610880565b610b7760a0830184610a2e565b979650505050505050565b600060a082019050610b976000830188610a2e565b8181036020830152610ba9818761088f565b9050610bb86040830186610a2e565b610bc56060830185610a2e565b610bd26080830184610880565b9695505050505050565b6000608082019050610bf16000830187610a2e565b610bfe6020830186610a2e565b610c0b6040830185610880565b610c186060830184610a2e565b95945050505050565b6000604051905081810181811067ffffffffffffffff82111715610c4857610c47610e83565b5b8060405250919050565b600067ffffffffffffffff821115610c6d57610c6c610e83565b5b601f19601f8301169050602081019050919050565b600081519050919050565b600082825260208201905092915050565b6000610ca982610d5e565b9150610cb483610d5e565b9250817fffffffffffffffffffffffffffffffffffffffffffffffffffffffffffffffff0483118215151615610ced57610cec610e25565b5b828202905092915050565b6000610d0382610d5e565b9150610d0e83610d5e565b925082821015610d2157610d20610e25565b5b828203905092915050565b6000610d3782610d3e565b9050919050565b600073ffffffffffffffffffffffffffffffffffffffff82169050919050565b6000819050919050565b82818337600083830152505050565b60005b83811015610d95578082015181840152602081019050610d7a565b83811115610da4576000848401525b50505050565b60006002820490506001821680610dc257607f821691505b60208210811415610dd657610dd5610e54565b5b50919050565b6000610de782610d5e565b91507fffffffffffffffffffffffffffffffffffffffffffffffffffffffffffffffff821415610e1a57610e19610e25565b5b600182019050919050565b7f4e487b7100000000000000000000000000000000000000000000000000000000600052601160045260246000fd5b7f4e487b7100000000000000000000000000000000000000000000000000000000600052602260045260246000fd5b7f4e487b7100000000000000000000000000000000000000000000000000000000600052604160045260246000fd5b6000601f19601f8301169050919050565b610ecc81610d5e565b8114610ed757600080fd5b5056fea26469706673582212205f09c2ffe4ce5152985f07ff158d30a388028e4a2a2b44aae0dfdd4ec5b6b25364736f6c63430008000033",
  "immutableReferences": {},
  "source": "// SPDX-License-Identifier: MIT\npragma solidity ^0.8.0;\n\ncontract ResourceTrading {\n    address public owner;\n    uint256 public resourceCounter;\n\n    struct Resource {\n        uint256 id;\n        string title;\n        string description;\n        uint256 price; // Price in Wei\n        address seller;\n        uint256 quantity;\n    }\n\n    mapping(uint256 => Resource) public resources;\n\n    event ResourceAdded(uint256 id, string title, uint256 price, uint256 quantity, address seller);\n    event ResourcePurchased(uint256 id, uint256 quantity, address buyer, uint256 totalPrice);\n\n    modifier onlyOwner() {\n        require(msg.sender == owner, \"Only owner can call this function\");\n        _;\n    }\n\n    constructor() {\n        owner = msg.sender;\n    }\n\n    function addResource(\n        string memory _title,\n        string memory _description,\n        uint256 _price,\n        uint256 _quantity\n    ) public {\n        require(_price > 0, \"Price must be greater than zero\");\n        require(_quantity > 0, \"Quantity must be greater than zero\");\n\n        resourceCounter++;\n        resources[resourceCounter] = Resource(resourceCounter, _title, _description, _price, msg.sender, _quantity);\n\n        emit ResourceAdded(resourceCounter, _title, _price, _quantity, msg.sender);\n    }\n\n    function purchaseResource(uint256 _id, uint256 _quantity) public payable {\n        Resource storage resource = resources[_id];\n        require(resource.id != 0, \"Resource does not exist\");\n        require(resource.quantity >= _quantity, \"Not enough quantity available\");\n        uint256 totalPrice = resource.price * _quantity;\n        require(msg.value == totalPrice, \"Incorrect Ether sent\");\n\n        resource.quantity -= _quantity;\n        payable(resource.seller).transfer(totalPrice);\n\n        emit ResourcePurchased(_id, _quantity, msg.sender, totalPrice);\n    }\n}",
  "sourcePath": "C:\\Users\\sambi\\Desktop\\My Projects\\MLSA-KIIT-Hackathon\\smart-contract\\contracts\\ResourceTrading.sol",
  "compiler": {
    "name": "solc",
    "version": "0.8.0+commit.c7dfd78e.Emscripten.clang"
  },
  "schemaVersion": "3.4.16",
  "updatedAt": "2024-12-15T01:25:30.250Z",
  "networkType": "ethereum",
  "devdoc": {
    "kind": "dev",
    "methods": {},
    "version": 1
  },
  "userdoc": {
    "kind": "user",
    "methods": {},
    "version": 1
  }
}